{
  "contractName": "RedactOwnership",
  "abi": [
    {
      "anonymous": false,
      "inputs": [
        {
          "indexed": false,
          "internalType": "address",
          "name": "owner",
          "type": "address"
        },
        {
          "indexed": false,
          "internalType": "string",
          "name": "ipfsHash",
          "type": "string"
        }
      ],
      "name": "FileUploaded",
      "type": "event"
    },
    {
      "anonymous": false,
      "inputs": [
        {
          "indexed": false,
          "internalType": "address",
          "name": "userAddress",
          "type": "address"
        },
        {
          "indexed": false,
          "internalType": "string",
          "name": "username",
          "type": "string"
        },
        {
          "indexed": false,
          "internalType": "string",
          "name": "email",
          "type": "string"
        }
      ],
      "name": "UserRegistered",
      "type": "event"
    },
    {
      "inputs": [
        {
          "internalType": "string",
          "name": "",
          "type": "string"
        }
      ],
      "name": "files",
      "outputs": [
        {
          "internalType": "address",
          "name": "owner",
          "type": "address"
        },
        {
          "internalType": "string",
          "name": "ipfsHash",
          "type": "string"
        }
      ],
      "stateMutability": "view",
      "type": "function"
    },
    {
      "inputs": [
        {
          "internalType": "address",
          "name": "",
          "type": "address"
        }
      ],
      "name": "users",
      "outputs": [
        {
          "internalType": "string",
          "name": "username",
          "type": "string"
        },
        {
          "internalType": "string",
          "name": "email",
          "type": "string"
        },
        {
          "internalType": "bytes32",
          "name": "passwordHash",
          "type": "bytes32"
        },
        {
          "internalType": "address",
          "name": "userAddress",
          "type": "address"
        }
      ],
      "stateMutability": "view",
      "type": "function"
    },
    {
      "inputs": [
        {
          "internalType": "string",
          "name": "username",
          "type": "string"
        },
        {
          "internalType": "string",
          "name": "email",
          "type": "string"
        },
        {
          "internalType": "string",
          "name": "password",
          "type": "string"
        }
      ],
      "name": "register",
      "outputs": [],
      "stateMutability": "nonpayable",
      "type": "function"
    },
    {
      "inputs": [
        {
          "internalType": "string",
          "name": "ipfsHash",
          "type": "string"
        }
      ],
      "name": "uploadFile",
      "outputs": [],
      "stateMutability": "nonpayable",
      "type": "function"
    },
    {
      "inputs": [
        {
          "internalType": "string",
          "name": "ipfsHash",
          "type": "string"
        }
      ],
      "name": "verifyOwnership",
      "outputs": [
        {
          "internalType": "bool",
          "name": "",
          "type": "bool"
        }
      ],
      "stateMutability": "view",
      "type": "function"
    }
  ],
  "bytecode": "0x608060405234801561001057600080fd5b50610ce0806100206000396000f3fe608060405234801561001057600080fd5b50600436106100575760003560e01c8063293f854e1461005c5780634cd08d031461008c578063a87430ba146100a8578063e37ffc30146100db578063e7755761146100f7575b600080fd5b61007660048036038101906100719190610817565b610128565b6040516100839190610a52565b60405180910390f35b6100a660048036038101906100a19190610858565b6101a1565b005b6100c260048036038101906100bd91906107ee565b6103a0565b6040516100d29493929190610a6d565b60405180910390f35b6100f560048036038101906100f09190610817565b610500565b005b610111600480360381019061010c9190610817565b6105ec565b60405161011f9291906109dd565b60405180910390f35b60003373ffffffffffffffffffffffffffffffffffffffff1660018360405161015191906109c6565b908152602001604051809103902060000160009054906101000a900473ffffffffffffffffffffffffffffffffffffffff1673ffffffffffffffffffffffffffffffffffffffff16149050919050565b60008060003373ffffffffffffffffffffffffffffffffffffffff1673ffffffffffffffffffffffffffffffffffffffff16815260200190815260200160002060010180546101ef90610bf2565b905014610231576040517f08c379a000000000000000000000000000000000000000000000000000000000815260040161022890610ac0565b60405180910390fd5b60008160405160200161024491906109c6565b60405160208183030381529060405280519060200120905060405180608001604052808581526020018481526020018281526020013373ffffffffffffffffffffffffffffffffffffffff168152506000803373ffffffffffffffffffffffffffffffffffffffff1673ffffffffffffffffffffffffffffffffffffffff16815260200190815260200160002060008201518160000190805190602001906102ed9291906106ce565b50602082015181600101908051906020019061030a9291906106ce565b506040820151816002015560608201518160030160006101000a81548173ffffffffffffffffffffffffffffffffffffffff021916908373ffffffffffffffffffffffffffffffffffffffff1602179055509050507f92822564bab8864c3a47b34e8d23fbce5c46234eb5da261f94087b995ac0f33b33858560405161039293929190610a0d565b60405180910390a150505050565b60006020528060005260406000206000915090508060000180546103c390610bf2565b80601f01602080910402602001604051908101604052809291908181526020018280546103ef90610bf2565b801561043c5780601f106104115761010080835404028352916020019161043c565b820191906000526020600020905b81548152906001019060200180831161041f57829003601f168201915b50505050509080600101805461045190610bf2565b80601f016020809104026020016040519081016040528092919081815260200182805461047d90610bf2565b80156104ca5780601f1061049f576101008083540402835291602001916104ca565b820191906000526020600020905b8154815290600101906020018083116104ad57829003601f168201915b5050505050908060020154908060030160009054906101000a900473ffffffffffffffffffffffffffffffffffffffff16905084565b60405180604001604052803373ffffffffffffffffffffffffffffffffffffffff1681526020018281525060018260405161053b91906109c6565b908152602001604051809103902060008201518160000160006101000a81548173ffffffffffffffffffffffffffffffffffffffff021916908373ffffffffffffffffffffffffffffffffffffffff16021790555060208201518160010190805190602001906105ac9291906106ce565b509050507f5378764a7f2ef654d29aa1cad65388f3dade11c871fbcd558bf6b56be0e37de833826040516105e19291906109dd565b60405180910390a150565b6001818051602081018201805184825260208301602085012081835280955050505050506000915090508060000160009054906101000a900473ffffffffffffffffffffffffffffffffffffffff169080600101805461064b90610bf2565b80601f016020809104026020016040519081016040528092919081815260200182805461067790610bf2565b80156106c45780601f10610699576101008083540402835291602001916106c4565b820191906000526020600020905b8154815290600101906020018083116106a757829003601f168201915b5050505050905082565b8280546106da90610bf2565b90600052602060002090601f0160209004810192826106fc5760008555610743565b82601f1061071557805160ff1916838001178555610743565b82800160010185558215610743579182015b82811115610742578251825591602001919060010190610727565b5b5090506107509190610754565b5090565b5b8082111561076d576000816000905550600101610755565b5090565b600061078461077f84610b11565b610ae0565b90508281526020810184848401111561079c57600080fd5b6107a7848285610bb0565b509392505050565b6000813590506107be81610c93565b92915050565b600082601f8301126107d557600080fd5b81356107e5848260208601610771565b91505092915050565b60006020828403121561080057600080fd5b600061080e848285016107af565b91505092915050565b60006020828403121561082957600080fd5b600082013567ffffffffffffffff81111561084357600080fd5b61084f848285016107c4565b91505092915050565b60008060006060848603121561086d57600080fd5b600084013567ffffffffffffffff81111561088757600080fd5b610893868287016107c4565b935050602084013567ffffffffffffffff8111156108b057600080fd5b6108bc868287016107c4565b925050604084013567ffffffffffffffff8111156108d957600080fd5b6108e5868287016107c4565b9150509250925092565b6108f881610b68565b82525050565b61090781610b7a565b82525050565b61091681610b86565b82525050565b600061092782610b41565b6109318185610b4c565b9350610941818560208601610bbf565b61094a81610c82565b840191505092915050565b600061096082610b41565b61096a8185610b5d565b935061097a818560208601610bbf565b80840191505092915050565b6000610993601383610b4c565b91507f5573657220616c726561647920657869737473000000000000000000000000006000830152602082019050919050565b60006109d28284610955565b915081905092915050565b60006040820190506109f260008301856108ef565b8181036020830152610a04818461091c565b90509392505050565b6000606082019050610a2260008301866108ef565b8181036020830152610a34818561091c565b90508181036040830152610a48818461091c565b9050949350505050565b6000602082019050610a6760008301846108fe565b92915050565b60006080820190508181036000830152610a87818761091c565b90508181036020830152610a9b818661091c565b9050610aaa604083018561090d565b610ab760608301846108ef565b95945050505050565b60006020820190508181036000830152610ad981610986565b9050919050565b6000604051905081810181811067ffffffffffffffff82111715610b0757610b06610c53565b5b8060405250919050565b600067ffffffffffffffff821115610b2c57610b2b610c53565b5b601f19601f8301169050602081019050919050565b600081519050919050565b600082825260208201905092915050565b600081905092915050565b6000610b7382610b90565b9050919050565b60008115159050919050565b6000819050919050565b600073ffffffffffffffffffffffffffffffffffffffff82169050919050565b82818337600083830152505050565b60005b83811015610bdd578082015181840152602081019050610bc2565b83811115610bec576000848401525b50505050565b60006002820490506001821680610c0a57607f821691505b60208210811415610c1e57610c1d610c24565b5b50919050565b7f4e487b7100000000000000000000000000000000000000000000000000000000600052602260045260246000fd5b7f4e487b7100000000000000000000000000000000000000000000000000000000600052604160045260246000fd5b6000601f19601f8301169050919050565b610c9c81610b68565b8114610ca757600080fd5b5056fea264697066735822122042cc9efc729bc7f72ae3fe26e0f26c1d5f302477ab9720c5eff04f604126106464736f6c63430008000033",
  "immutableReferences": {},
  "source": "// SPDX-License-Identifier: MIT\r\npragma solidity ^0.8.0;\r\n\r\ncontract RedactOwnership {\r\n    struct User {\r\n        string username;\r\n        string email;\r\n        bytes32 passwordHash;\r\n        address userAddress;\r\n    }\r\n\r\n    struct FileRecord {\r\n        address owner;\r\n        string ipfsHash;\r\n    }\r\n\r\n    mapping(address => User) public users;\r\n    mapping(string => FileRecord) public files;\r\n\r\n    event UserRegistered(address userAddress, string username, string email);\r\n    event FileUploaded(address owner, string ipfsHash);\r\n\r\n    function register(string memory username, string memory email, string memory password) public {\r\n        require(bytes(users[msg.sender].email).length == 0, \"User already exists\");\r\n        bytes32 passwordHash = keccak256(abi.encodePacked(password));\r\n        users[msg.sender] = User(username, email, passwordHash, msg.sender);\r\n        emit UserRegistered(msg.sender, username, email);\r\n    }\r\n\r\n    function uploadFile(string memory ipfsHash) public {\r\n        files[ipfsHash] = FileRecord(msg.sender, ipfsHash);\r\n        emit FileUploaded(msg.sender, ipfsHash);\r\n    }\r\n\r\n    function verifyOwnership(string memory ipfsHash) public view returns (bool) {\r\n        return files[ipfsHash].owner == msg.sender;\r\n    }\r\n}\r\n",
  "sourcePath": "E:\\RE-DACT\\blockchain\\contracts\\RedactOwnership.sol",
  "compiler": {
    "name": "solc",
    "version": "0.8.0+commit.c7dfd78e.Emscripten.clang"
  },
  "schemaVersion": "3.4.16",
  "updatedAt": "2024-08-07T07:53:32.742Z",
  "devdoc": {
    "kind": "dev",
    "methods": {},
    "version": 1
  },
  "userdoc": {
    "kind": "user",
    "methods": {},
    "version": 1
  }
}